{
  "_format": "hh-sol-artifact-1",
  "contractName": "PolygonToSecret",
  "sourceName": "contracts/PolygonToSecret.sol",
  "abi": [
    {
      "inputs": [
        {
          "internalType": "address",
          "name": "_gateway",
          "type": "address"
        },
        {
          "internalType": "address",
          "name": "_gasReceiver",
          "type": "address"
        }
      ],
      "stateMutability": "nonpayable",
      "type": "constructor"
    },
    {
      "inputs": [],
      "name": "InvalidAddress",
      "type": "error"
    },
    {
      "inputs": [],
      "name": "NotApprovedByGateway",
      "type": "error"
    },
    {
      "anonymous": false,
      "inputs": [
        {
          "indexed": false,
          "internalType": "string",
          "name": "_from",
          "type": "string"
        },
        {
          "indexed": false,
          "internalType": "string",
          "name": "_message",
          "type": "string"
        }
      ],
      "name": "Executed",
      "type": "event"
    },
    {
      "inputs": [
        {
          "internalType": "bytes32",
          "name": "commandId",
          "type": "bytes32"
        },
        {
          "internalType": "string",
          "name": "sourceChain",
          "type": "string"
        },
        {
          "internalType": "string",
          "name": "sourceAddress",
          "type": "string"
        },
        {
          "internalType": "bytes",
          "name": "payload",
          "type": "bytes"
        }
      ],
      "name": "execute",
      "outputs": [],
      "stateMutability": "nonpayable",
      "type": "function"
    },
    {
      "inputs": [
        {
          "internalType": "bytes32",
          "name": "commandId",
          "type": "bytes32"
        },
        {
          "internalType": "string",
          "name": "sourceChain",
          "type": "string"
        },
        {
          "internalType": "string",
          "name": "sourceAddress",
          "type": "string"
        },
        {
          "internalType": "bytes",
          "name": "payload",
          "type": "bytes"
        },
        {
          "internalType": "string",
          "name": "tokenSymbol",
          "type": "string"
        },
        {
          "internalType": "uint256",
          "name": "amount",
          "type": "uint256"
        }
      ],
      "name": "executeWithToken",
      "outputs": [],
      "stateMutability": "nonpayable",
      "type": "function"
    },
    {
      "inputs": [],
      "name": "gasService",
      "outputs": [
        {
          "internalType": "contract IAxelarGasService",
          "name": "",
          "type": "address"
        }
      ],
      "stateMutability": "view",
      "type": "function"
    },
    {
      "inputs": [],
      "name": "gateway",
      "outputs": [
        {
          "internalType": "contract IAxelarGateway",
          "name": "",
          "type": "address"
        }
      ],
      "stateMutability": "view",
      "type": "function"
    },
    {
      "inputs": [],
      "name": "message",
      "outputs": [
        {
          "internalType": "string",
          "name": "",
          "type": "string"
        }
      ],
      "stateMutability": "view",
      "type": "function"
    },
    {
      "inputs": [
        {
          "internalType": "string",
          "name": "destinationChain",
          "type": "string"
        },
        {
          "internalType": "string",
          "name": "destinationAddress",
          "type": "string"
        },
        {
          "internalType": "string",
          "name": "_message",
          "type": "string"
        }
      ],
      "name": "send",
      "outputs": [],
      "stateMutability": "payable",
      "type": "function"
    },
    {
      "inputs": [],
      "name": "sourceAddress",
      "outputs": [
        {
          "internalType": "string",
          "name": "",
          "type": "string"
        }
      ],
      "stateMutability": "view",
      "type": "function"
    },
    {
      "inputs": [],
      "name": "sourceChain",
      "outputs": [
        {
          "internalType": "string",
          "name": "",
          "type": "string"
        }
      ],
      "stateMutability": "view",
      "type": "function"
    }
  ],
  "bytecode": "0x60c060405234801561001057600080fd5b50604051610f4a380380610f4a83398101604081905261002f9161008b565b816001600160a01b0381166100575760405163e6c4247b60e01b815260040160405180910390fd5b6001600160a01b039081166080521660a052506100be565b80516001600160a01b038116811461008657600080fd5b919050565b6000806040838503121561009e57600080fd5b6100a78361006f565b91506100b56020840161006f565b90509250929050565b60805160a051610e4c6100fe6000396000818161015a015261048f0152600081816092015281816101d70152818161034801526105180152610e4c6000f3fe60806040526004361061007b5760003560e01c80635615264d1161004e5780635615264d146101355780636a22d8cc14610148578063b0fa84441461017c578063e21f37ce1461019157600080fd5b8063116191b6146100805780631a98b2e0146100d15780631c6ffa46146100f35780634916065814610115575b600080fd5b34801561008c57600080fd5b506100b47f000000000000000000000000000000000000000000000000000000000000000081565b6040516001600160a01b0390911681526020015b60405180910390f35b3480156100dd57600080fd5b506100f16100ec366004610662565b6101a6565b005b3480156100ff57600080fd5b50610108610289565b6040516100c89190610782565b34801561012157600080fd5b506100f161013036600461079c565b610317565b6100f1610143366004610840565b6103ff565b34801561015457600080fd5b506100b47f000000000000000000000000000000000000000000000000000000000000000081565b34801561018857600080fd5b50610108610586565b34801561019d57600080fd5b50610108610593565b600085856040516101b89291906108da565b604051908190038120631876eed960e01b825291506001600160a01b037f00000000000000000000000000000000000000000000000000000000000000001690631876eed99061021c908e908e908e908e908e9089908d908d908d90600401610913565b6020604051808303816000875af115801561023b573d6000803e3d6000fd5b505050506040513d601f19601f8201168201806040525081019061025f9190610972565b61027c57604051631403112d60e21b815260040160405180910390fd5b5050505050505050505050565b6001805461029690610994565b80601f01602080910402602001604051908101604052809291908181526020018280546102c290610994565b801561030f5780601f106102e45761010080835404028352916020019161030f565b820191906000526020600020905b8154815290600101906020018083116102f257829003601f168201915b505050505081565b600082826040516103299291906108da565b604051908190038120635f6970c360e01b825291506001600160a01b037f00000000000000000000000000000000000000000000000000000000000000001690635f6970c390610387908b908b908b908b908b9089906004016109ce565b6020604051808303816000875af11580156103a6573d6000803e3d6000fd5b505050506040513d601f19601f820116820180604052508101906103ca9190610972565b6103e757604051631403112d60e21b815260040160405180910390fd5b6103f58787878787876105a0565b5050505050505050565b600034116104535760405162461bcd60e51b815260206004820152601760248201527f476173207061796d656e74206973207265717569726564000000000000000000604482015260640160405180910390fd5b60008282604051602001610468929190610a0f565b60408051601f1981840301815290829052630c93e3bb60e01b825291506001600160a01b037f00000000000000000000000000000000000000000000000000000000000000001690630c93e3bb9034906104d29030908c908c908c908c908a903390600401610a2b565b6000604051808303818588803b1580156104eb57600080fd5b505af11580156104ff573d6000803e3d6000fd5b5050604051631c92115f60e01b81526001600160a01b037f0000000000000000000000000000000000000000000000000000000000000000169350631c92115f925061055891508a908a908a908a908890600401610a8d565b600060405180830381600087803b15801561057257600080fd5b505af115801561027c573d6000803e3d6000fd5b6002805461029690610994565b6000805461029690610994565b6105ac81830183610aea565b6000906105b99082610bea565b5060016105c7868883610caa565b5060026105d5848683610caa565b507f0d97a9033491f569feb4c72abf12722b227eec24ee13547bec3654f8663ff71160026000604051610609929190610de8565b60405180910390a1505050505050565b60008083601f84011261062b57600080fd5b50813567ffffffffffffffff81111561064357600080fd5b60208301915083602082850101111561065b57600080fd5b9250929050565b60008060008060008060008060008060c08b8d03121561068157600080fd5b8a35995060208b013567ffffffffffffffff808211156106a057600080fd5b6106ac8e838f01610619565b909b50995060408d01359150808211156106c557600080fd5b6106d18e838f01610619565b909950975060608d01359150808211156106ea57600080fd5b6106f68e838f01610619565b909750955060808d013591508082111561070f57600080fd5b5061071c8d828e01610619565b9150809450508092505060a08b013590509295989b9194979a5092959850565b6000815180845260005b8181101561076257602081850181015186830182015201610746565b506000602082860101526020601f19601f83011685010191505092915050565b602081526000610795602083018461073c565b9392505050565b60008060008060008060006080888a0312156107b757600080fd5b87359650602088013567ffffffffffffffff808211156107d657600080fd5b6107e28b838c01610619565b909850965060408a01359150808211156107fb57600080fd5b6108078b838c01610619565b909650945060608a013591508082111561082057600080fd5b5061082d8a828b01610619565b989b979a50959850939692959293505050565b6000806000806000806060878903121561085957600080fd5b863567ffffffffffffffff8082111561087157600080fd5b61087d8a838b01610619565b9098509650602089013591508082111561089657600080fd5b6108a28a838b01610619565b909650945060408901359150808211156108bb57600080fd5b506108c889828a01610619565b979a9699509497509295939492505050565b8183823760009101908152919050565b81835281816020850137506000828201602090810191909152601f909101601f19169091010190565b89815260c06020820152600061092d60c083018a8c6108ea565b828103604084015261094081898b6108ea565b9050866060840152828103608084015261095b8186886108ea565b9150508260a08301529a9950505050505050505050565b60006020828403121561098457600080fd5b8151801515811461079557600080fd5b600181811c908216806109a857607f821691505b6020821081036109c857634e487b7160e01b600052602260045260246000fd5b50919050565b8681526080602082015260006109e86080830187896108ea565b82810360408401526109fb8186886108ea565b915050826060830152979650505050505050565b602081526000610a236020830184866108ea565b949350505050565b600060018060a01b03808a16835260a06020840152610a4e60a08401898b6108ea565b8381036040850152610a6181888a6108ea565b90508381036060850152610a75818761073c565b92505080841660808401525098975050505050505050565b606081526000610aa16060830187896108ea565b8281036020840152610ab48186886108ea565b90508281036040840152610ac8818561073c565b98975050505050505050565b634e487b7160e01b600052604160045260246000fd5b600060208284031215610afc57600080fd5b813567ffffffffffffffff80821115610b1457600080fd5b818401915084601f830112610b2857600080fd5b813581811115610b3a57610b3a610ad4565b604051601f8201601f19908116603f01168101908382118183101715610b6257610b62610ad4565b81604052828152876020848701011115610b7b57600080fd5b826020860160208301376000928101602001929092525095945050505050565b601f821115610be557600081815260208120601f850160051c81016020861015610bc25750805b601f850160051c820191505b81811015610be157828155600101610bce565b5050505b505050565b815167ffffffffffffffff811115610c0457610c04610ad4565b610c1881610c128454610994565b84610b9b565b602080601f831160018114610c4d5760008415610c355750858301515b600019600386901b1c1916600185901b178555610be1565b600085815260208120601f198616915b82811015610c7c57888601518255948401946001909101908401610c5d565b5085821015610c9a5787850151600019600388901b60f8161c191681555b5050505050600190811b01905550565b67ffffffffffffffff831115610cc257610cc2610ad4565b610cd683610cd08354610994565b83610b9b565b6000601f841160018114610d0a5760008515610cf25750838201355b600019600387901b1c1916600186901b178355610d64565b600083815260209020601f19861690835b82811015610d3b5786850135825560209485019460019092019101610d1b565b5086821015610d585760001960f88860031b161c19848701351681555b505060018560011b0183555b5050505050565b60008154610d7881610994565b808552602060018381168015610d955760018114610daf57610ddd565b60ff1985168884015283151560051b880183019550610ddd565b866000528260002060005b85811015610dd55781548a8201860152908301908401610dba565b890184019650505b505050505092915050565b604081526000610dfb6040830185610d6b565b8281036020840152610e0d8185610d6b565b9594505050505056fea2646970667358221220ce4d7ad6ec1bf60475910fad225743c7a9709aad6a61b6824992bf55a3878f9164736f6c63430008110033",
  "linkReferences": {},
  "deployedLinkReferences": {}
}