{
  "_format": "hh-sol-artifact-1",
  "contractName": "PolygonToSecret",
  "sourceName": "contracts/PolygonToSecret.sol",
  "abi": [
    {
      "inputs": [
        {
          "internalType": "address",
          "name": "gateway_",
          "type": "address"
        },
        {
          "internalType": "address",
          "name": "gasReceiver_",
          "type": "address"
        },
        {
          "internalType": "string",
          "name": "chainName_",
          "type": "string"
        }
      ],
      "stateMutability": "nonpayable",
      "type": "constructor"
    },
    {
      "inputs": [],
      "name": "InvalidAddress",
      "type": "error"
    },
    {
      "inputs": [],
      "name": "NotApprovedByGateway",
      "type": "error"
    },
    {
      "inputs": [],
      "name": "chainName",
      "outputs": [
        {
          "internalType": "string",
          "name": "",
          "type": "string"
        }
      ],
      "stateMutability": "view",
      "type": "function"
    },
    {
      "inputs": [
        {
          "internalType": "bytes32",
          "name": "commandId",
          "type": "bytes32"
        },
        {
          "internalType": "string",
          "name": "sourceChain",
          "type": "string"
        },
        {
          "internalType": "string",
          "name": "sourceAddress",
          "type": "string"
        },
        {
          "internalType": "bytes",
          "name": "payload",
          "type": "bytes"
        }
      ],
      "name": "execute",
      "outputs": [],
      "stateMutability": "nonpayable",
      "type": "function"
    },
    {
      "inputs": [
        {
          "internalType": "bytes32",
          "name": "commandId",
          "type": "bytes32"
        },
        {
          "internalType": "string",
          "name": "sourceChain",
          "type": "string"
        },
        {
          "internalType": "string",
          "name": "sourceAddress",
          "type": "string"
        },
        {
          "internalType": "bytes",
          "name": "payload",
          "type": "bytes"
        },
        {
          "internalType": "string",
          "name": "tokenSymbol",
          "type": "string"
        },
        {
          "internalType": "uint256",
          "name": "amount",
          "type": "uint256"
        }
      ],
      "name": "executeWithToken",
      "outputs": [],
      "stateMutability": "nonpayable",
      "type": "function"
    },
    {
      "inputs": [],
      "name": "gasService",
      "outputs": [
        {
          "internalType": "contract IAxelarGasService",
          "name": "",
          "type": "address"
        }
      ],
      "stateMutability": "view",
      "type": "function"
    },
    {
      "inputs": [],
      "name": "gateway",
      "outputs": [
        {
          "internalType": "contract IAxelarGateway",
          "name": "",
          "type": "address"
        }
      ],
      "stateMutability": "view",
      "type": "function"
    },
    {
      "inputs": [
        {
          "internalType": "string",
          "name": "destinationChain",
          "type": "string"
        },
        {
          "internalType": "string",
          "name": "destinationAddress",
          "type": "string"
        },
        {
          "internalType": "string",
          "name": "message",
          "type": "string"
        }
      ],
      "name": "send",
      "outputs": [],
      "stateMutability": "payable",
      "type": "function"
    },
    {
      "inputs": [],
      "name": "storedMessage",
      "outputs": [
        {
          "internalType": "string",
          "name": "sender",
          "type": "string"
        },
        {
          "internalType": "string",
          "name": "message",
          "type": "string"
        }
      ],
      "stateMutability": "view",
      "type": "function"
    }
  ],
  "bytecode": "0x60c06040523480156200001157600080fd5b50604051620017ee380380620017ee8339810160408190526200003491620000bb565b826001600160a01b0381166200005d5760405163e6c4247b60e01b815260040160405180910390fd5b6001600160a01b03908116608052821660a05260006200007e828262000244565b5050505062000310565b80516001600160a01b0381168114620000a057600080fd5b919050565b634e487b7160e01b600052604160045260246000fd5b600080600060608486031215620000d157600080fd5b620000dc8462000088565b92506020620000ed81860162000088565b60408601519093506001600160401b03808211156200010b57600080fd5b818701915087601f8301126200012057600080fd5b815181811115620001355762000135620000a5565b604051601f8201601f19908116603f01168101908382118183101715620001605762000160620000a5565b816040528281528a868487010111156200017957600080fd5b600093505b828410156200019d57848401860151818501870152928501926200017e565b60008684830101528096505050505050509250925092565b600181811c90821680620001ca57607f821691505b602082108103620001eb57634e487b7160e01b600052602260045260246000fd5b50919050565b601f8211156200023f57600081815260208120601f850160051c810160208610156200021a5750805b601f850160051c820191505b818110156200023b5782815560010162000226565b5050505b505050565b81516001600160401b03811115620002605762000260620000a5565b6200027881620002718454620001b5565b84620001f1565b602080601f831160018114620002b05760008415620002975750858301515b600019600386901b1c1916600185901b1785556200023b565b600085815260208120601f198616915b82811015620002e157888601518255948401946001909101908401620002c0565b5085821015620003005787850151600019600388901b60f8161c191681555b5050505050600190811b01905550565b60805160a05161149d620003516000396000818161014f01526104220152600081816087015281816101c50152818161033601526104bf015261149d6000f3fe6080604052600436106100705760003560e01c8063491606581161004e578063491606581461010a5780635615264d1461012a5780636a22d8cc1461013d578063b2f6cbbe1461017157600080fd5b8063116191b6146100755780631a98b2e0146100c65780631c93b03a146100e8575b600080fd5b34801561008157600080fd5b506100a97f000000000000000000000000000000000000000000000000000000000000000081565b6040516001600160a01b0390911681526020015b60405180910390f35b3480156100d257600080fd5b506100e66100e1366004610b98565b610194565b005b3480156100f457600080fd5b506100fd610277565b6040516100bd9190610cc2565b34801561011657600080fd5b506100e6610125366004610cdc565b610305565b6100e6610138366004610d80565b6103ed565b34801561014957600080fd5b506100a97f000000000000000000000000000000000000000000000000000000000000000081565b34801561017d57600080fd5b5061018661053b565b6040516100bd929190610e1a565b600085856040516101a6929190610e48565b604051908190038120631876eed960e01b825291506001600160a01b037f00000000000000000000000000000000000000000000000000000000000000001690631876eed99061020a908e908e908e908e908e9089908d908d908d90600401610e81565b6020604051808303816000875af1158015610229573d6000803e3d6000fd5b505050506040513d601f19601f8201168201806040525081019061024d9190610ee0565b61026a57604051631403112d60e21b815260040160405180910390fd5b5050505050505050505050565b6000805461028490610f02565b80601f01602080910402602001604051908101604052809291908181526020018280546102b090610f02565b80156102fd5780601f106102d2576101008083540402835291602001916102fd565b820191906000526020600020905b8154815290600101906020018083116102e057829003601f168201915b505050505081565b60008282604051610317929190610e48565b604051908190038120635f6970c360e01b825291506001600160a01b037f00000000000000000000000000000000000000000000000000000000000000001690635f6970c390610375908b908b908b908b908b908990600401610f3c565b6020604051808303816000875af1158015610394573d6000803e3d6000fd5b505050506040513d601f19601f820116820180604052508101906103b89190610ee0565b6103d557604051631403112d60e21b815260040160405180910390fd5b6103e387878787878761065b565b5050505050505050565b60008282604051602001610402929190610f7d565b6040516020818303038152906040529050600061041e826106a5565b90507f00000000000000000000000000000000000000000000000000000000000000006001600160a01b0316630c93e3bb34308b8b8b8b88336040518963ffffffff1660e01b81526004016104799796959493929190610f99565b6000604051808303818588803b15801561049257600080fd5b505af11580156104a6573d6000803e3d6000fd5b5050604051631c92115f60e01b81526001600160a01b037f0000000000000000000000000000000000000000000000000000000000000000169350631c92115f92506104ff91508b908b908b908b908890600401610ffb565b600060405180830381600087803b15801561051957600080fd5b505af115801561052d573d6000803e3d6000fd5b505050505050505050505050565b60018054819061054a90610f02565b80601f016020809104026020016040519081016040528092919081815260200182805461057690610f02565b80156105c35780601f10610598576101008083540402835291602001916105c3565b820191906000526020600020905b8154815290600101906020018083116105a657829003601f168201915b5050505050908060010180546105d890610f02565b80601f016020809104026020016040519081016040528092919081815260200182805461060490610f02565b80156106515780601f1061062657610100808354040283529160200191610651565b820191906000526020600020905b81548152906001019060200180831161063457829003601f168201915b5050505050905082565b60008061066a838501856110e5565b604080518082019091528281526020810182905291935091506001806106908582611198565b506020820151600182019061026a9082611198565b60606000806106b330610904565b846040516020016106c693929190611258565b60408051808303601f19018152600380845260808401909252925060009190816020015b60608152602001906001900390816106ea5790505090506040518060400160405280600c81526020016b39b7bab931b2afb1b430b4b760a11b815250816000815181106107395761073961130c565b60200260200101819052506040518060400160405280600e81526020016d736f757263655f6164647265737360901b8152508160018151811061077e5761077e61130c565b6020026020010181905250604051806040016040528060078152602001661c185e5b1bd85960ca1b815250816002815181106107bc576107bc61130c565b602090810291909101015260408051600380825260808201909252600091816020015b60608152602001906001900390816107df57905050905060405180604001604052806006815260200165737472696e6760d01b815250816000815181106108285761082861130c565b602002602001018190525060405180604001604052806006815260200165737472696e6760d01b815250816001815181106108655761086561130c565b602002602001018190525060405180604001604052806005815260200164627974657360d81b815250816002815181106108a1576108a161130c565b602002602001018190525060608282856040516020016108c393929190611374565b60408051601f198184030181529082905291506108ea90600160e01b9083906020016113d7565b604051602081830303815290604052945050505050919050565b604051606082811b6bffffffffffffffffffffffff191660208301529060009060340160408051601f198184030181528282528051838301909252601083526f181899199a1a9b1b9c1cb0b131b232b360811b6020840152805190935090919060009061097290600261141e565b61097d90600261143b565b67ffffffffffffffff81111561099557610995611042565b6040519080825280601f01601f1916602001820160405280156109bf576020820181803683370190505b509050600360fc1b816000815181106109da576109da61130c565b60200101906001600160f81b031916908160001a905350600f60fb1b81600181518110610a0957610a0961130c565b60200101906001600160f81b031916908160001a90535060005b83811015610b4557826004868381518110610a4057610a4061130c565b016020015182516001600160f81b031990911690911c60f81c908110610a6857610a6861130c565b01602001516001600160f81b03191682610a8383600261141e565b610a8e90600261143b565b81518110610a9e57610a9e61130c565b60200101906001600160f81b031916908160001a90535082858281518110610ac857610ac861130c565b602091010151815160f89190911c600f16908110610ae857610ae861130c565b01602001516001600160f81b03191682610b0383600261141e565b610b0e90600361143b565b81518110610b1e57610b1e61130c565b60200101906001600160f81b031916908160001a905350610b3e8161144e565b9050610a23565b5095945050505050565b60008083601f840112610b6157600080fd5b50813567ffffffffffffffff811115610b7957600080fd5b602083019150836020828501011115610b9157600080fd5b9250929050565b60008060008060008060008060008060c08b8d031215610bb757600080fd5b8a35995060208b013567ffffffffffffffff80821115610bd657600080fd5b610be28e838f01610b4f565b909b50995060408d0135915080821115610bfb57600080fd5b610c078e838f01610b4f565b909950975060608d0135915080821115610c2057600080fd5b610c2c8e838f01610b4f565b909750955060808d0135915080821115610c4557600080fd5b50610c528d828e01610b4f565b9150809450508092505060a08b013590509295989b9194979a5092959850565b60005b83811015610c8d578181015183820152602001610c75565b50506000910152565b60008151808452610cae816020860160208601610c72565b601f01601f19169290920160200192915050565b602081526000610cd56020830184610c96565b9392505050565b60008060008060008060006080888a031215610cf757600080fd5b87359650602088013567ffffffffffffffff80821115610d1657600080fd5b610d228b838c01610b4f565b909850965060408a0135915080821115610d3b57600080fd5b610d478b838c01610b4f565b909650945060608a0135915080821115610d6057600080fd5b50610d6d8a828b01610b4f565b989b979a50959850939692959293505050565b60008060008060008060608789031215610d9957600080fd5b863567ffffffffffffffff80821115610db157600080fd5b610dbd8a838b01610b4f565b90985096506020890135915080821115610dd657600080fd5b610de28a838b01610b4f565b90965094506040890135915080821115610dfb57600080fd5b50610e0889828a01610b4f565b979a9699509497509295939492505050565b604081526000610e2d6040830185610c96565b8281036020840152610e3f8185610c96565b95945050505050565b8183823760009101908152919050565b81835281816020850137506000828201602090810191909152601f909101601f19169091010190565b89815260c060208201526000610e9b60c083018a8c610e58565b8281036040840152610eae81898b610e58565b90508660608401528281036080840152610ec9818688610e58565b9150508260a08301529a9950505050505050505050565b600060208284031215610ef257600080fd5b81518015158114610cd557600080fd5b600181811c90821680610f1657607f821691505b602082108103610f3657634e487b7160e01b600052602260045260246000fd5b50919050565b868152608060208201526000610f56608083018789610e58565b8281036040840152610f69818688610e58565b915050826060830152979650505050505050565b602081526000610f91602083018486610e58565b949350505050565b600060018060a01b03808a16835260a06020840152610fbc60a08401898b610e58565b8381036040850152610fcf81888a610e58565b90508381036060850152610fe38187610c96565b92505080841660808401525098975050505050505050565b60608152600061100f606083018789610e58565b8281036020840152611022818688610e58565b905082810360408401526110368185610c96565b98975050505050505050565b634e487b7160e01b600052604160045260246000fd5b600082601f83011261106957600080fd5b813567ffffffffffffffff8082111561108457611084611042565b604051601f8301601f19908116603f011681019082821181831017156110ac576110ac611042565b816040528381528660208588010111156110c557600080fd5b836020870160208301376000602085830101528094505050505092915050565b600080604083850312156110f857600080fd5b823567ffffffffffffffff8082111561111057600080fd5b61111c86838701611058565b9350602085013591508082111561113257600080fd5b5061113f85828601611058565b9150509250929050565b601f82111561119357600081815260208120601f850160051c810160208610156111705750805b601f850160051c820191505b8181101561118f5782815560010161117c565b5050505b505050565b815167ffffffffffffffff8111156111b2576111b2611042565b6111c6816111c08454610f02565b84611149565b602080601f8311600181146111fb57600084156111e35750858301515b600019600386901b1c1916600185901b17855561118f565b600085815260208120601f198616915b8281101561122a5788860151825594840194600190910190840161120b565b50858210156112485787850151600019600388901b60f8161c191681555b5050505050600190811b01905550565b60608152600080855461126a81610f02565b806060860152608060018084166000811461128c57600181146112a6576112d7565b60ff1985168884015283151560051b8801830195506112d7565b8a60005260208060002060005b868110156112ce5781548b82018701529084019082016112b3565b8a018501975050505b505050505082810360208401526112ee8186610c96565b905082810360408401526113028185610c96565b9695505050505050565b634e487b7160e01b600052603260045260246000fd5b6000815180845260208085019450848260051b860182860160005b85811015611367578383038952611355838351610c96565b9885019892509084019060010161133d565b5090979650505050505050565b608081526013608082015272726563656976655f6d6573736167655f65766d60681b60a082015260c0602082015260006113b160c0830186611322565b82810360408401526113c38186611322565b905082810360608401526113028185610c96565b6001600160e01b03198316815281516000906113fa816004850160208701610c72565b919091016004019392505050565b634e487b7160e01b600052601160045260246000fd5b808202811582820484141761143557611435611408565b92915050565b8082018082111561143557611435611408565b60006001820161146057611460611408565b506001019056fea26469706673582212200615d2d2d4f64dc64ec5de5c1247faa5a8a2fcf8ee7e716dbca37a9ccb7babaf64736f6c63430008110033",
  "linkReferences": {},
  "deployedLinkReferences": {}
}