{
  "_format": "hh-sol-artifact-1",
  "contractName": "PolygonToSecret",
  "sourceName": "contracts/PolygonToSecret.sol",
  "abi": [
    {
      "inputs": [
        {
          "internalType": "address",
          "name": "gateway_",
          "type": "address"
        },
        {
          "internalType": "address",
          "name": "gasReceiver_",
          "type": "address"
        },
        {
          "internalType": "string",
          "name": "chainName_",
          "type": "string"
        }
      ],
      "stateMutability": "nonpayable",
      "type": "constructor"
    },
    {
      "inputs": [],
      "name": "InvalidAddress",
      "type": "error"
    },
    {
      "inputs": [],
      "name": "NotApprovedByGateway",
      "type": "error"
    },
    {
      "inputs": [],
      "name": "chainName",
      "outputs": [
        {
          "internalType": "string",
          "name": "",
          "type": "string"
        }
      ],
      "stateMutability": "view",
      "type": "function"
    },
    {
      "inputs": [
        {
          "internalType": "bytes32",
          "name": "commandId",
          "type": "bytes32"
        },
        {
          "internalType": "string",
          "name": "sourceChain",
          "type": "string"
        },
        {
          "internalType": "string",
          "name": "sourceAddress",
          "type": "string"
        },
        {
          "internalType": "bytes",
          "name": "payload",
          "type": "bytes"
        }
      ],
      "name": "execute",
      "outputs": [],
      "stateMutability": "nonpayable",
      "type": "function"
    },
    {
      "inputs": [
        {
          "internalType": "bytes32",
          "name": "commandId",
          "type": "bytes32"
        },
        {
          "internalType": "string",
          "name": "sourceChain",
          "type": "string"
        },
        {
          "internalType": "string",
          "name": "sourceAddress",
          "type": "string"
        },
        {
          "internalType": "bytes",
          "name": "payload",
          "type": "bytes"
        },
        {
          "internalType": "string",
          "name": "tokenSymbol",
          "type": "string"
        },
        {
          "internalType": "uint256",
          "name": "amount",
          "type": "uint256"
        }
      ],
      "name": "executeWithToken",
      "outputs": [],
      "stateMutability": "nonpayable",
      "type": "function"
    },
    {
      "inputs": [],
      "name": "gasService",
      "outputs": [
        {
          "internalType": "contract IAxelarGasService",
          "name": "",
          "type": "address"
        }
      ],
      "stateMutability": "view",
      "type": "function"
    },
    {
      "inputs": [],
      "name": "gateway",
      "outputs": [
        {
          "internalType": "contract IAxelarGateway",
          "name": "",
          "type": "address"
        }
      ],
      "stateMutability": "view",
      "type": "function"
    },
    {
      "inputs": [
        {
          "internalType": "string",
          "name": "destinationChain",
          "type": "string"
        },
        {
          "internalType": "string",
          "name": "destinationAddress",
          "type": "string"
        },
        {
          "internalType": "string",
          "name": "message",
          "type": "string"
        }
      ],
      "name": "send",
      "outputs": [],
      "stateMutability": "payable",
      "type": "function"
    },
    {
      "inputs": [],
      "name": "storedMessage",
      "outputs": [
        {
          "internalType": "string",
          "name": "sender",
          "type": "string"
        },
        {
          "internalType": "string",
          "name": "message",
          "type": "string"
        }
      ],
      "stateMutability": "view",
      "type": "function"
    }
  ],
  "bytecode": "0x60c06040523480156200001157600080fd5b5060405162001805380380620018058339810160408190526200003491620000bb565b826001600160a01b0381166200005d5760405163e6c4247b60e01b815260040160405180910390fd5b6001600160a01b03908116608052821660a05260006200007e828262000244565b5050505062000310565b80516001600160a01b0381168114620000a057600080fd5b919050565b634e487b7160e01b600052604160045260246000fd5b600080600060608486031215620000d157600080fd5b620000dc8462000088565b92506020620000ed81860162000088565b60408601519093506001600160401b03808211156200010b57600080fd5b818701915087601f8301126200012057600080fd5b815181811115620001355762000135620000a5565b604051601f8201601f19908116603f01168101908382118183101715620001605762000160620000a5565b816040528281528a868487010111156200017957600080fd5b600093505b828410156200019d57848401860151818501870152928501926200017e565b60008684830101528096505050505050509250925092565b600181811c90821680620001ca57607f821691505b602082108103620001eb57634e487b7160e01b600052602260045260246000fd5b50919050565b601f8211156200023f57600081815260208120601f850160051c810160208610156200021a5750805b601f850160051c820191505b818110156200023b5782815560010162000226565b5050505b505050565b81516001600160401b03811115620002605762000260620000a5565b6200027881620002718454620001b5565b84620001f1565b602080601f831160018114620002b05760008415620002975750858301515b600019600386901b1c1916600185901b1785556200023b565b600085815260208120601f198616915b82811015620002e157888601518255948401946001909101908401620002c0565b5085821015620003005787850151600019600388901b60f8161c191681555b5050505050600190811b01905550565b60805160a0516114b4620003516000396000818161014f015261042c0152600081816087015281816101c50152818161033601526104c901526114b46000f3fe6080604052600436106100705760003560e01c8063491606581161004e578063491606581461010a5780635615264d1461012a5780636a22d8cc1461013d578063b2f6cbbe1461017157600080fd5b8063116191b6146100755780631a98b2e0146100c65780631c93b03a146100e8575b600080fd5b34801561008157600080fd5b506100a97f000000000000000000000000000000000000000000000000000000000000000081565b6040516001600160a01b0390911681526020015b60405180910390f35b3480156100d257600080fd5b506100e66100e1366004610ba2565b610194565b005b3480156100f457600080fd5b506100fd610277565b6040516100bd9190610ccc565b34801561011657600080fd5b506100e6610125366004610ce6565b610305565b6100e6610138366004610d8a565b6103ed565b34801561014957600080fd5b506100a97f000000000000000000000000000000000000000000000000000000000000000081565b34801561017d57600080fd5b50610186610545565b6040516100bd929190610e24565b600085856040516101a6929190610e52565b604051908190038120631876eed960e01b825291506001600160a01b037f00000000000000000000000000000000000000000000000000000000000000001690631876eed99061020a908e908e908e908e908e9089908d908d908d90600401610e8b565b6020604051808303816000875af1158015610229573d6000803e3d6000fd5b505050506040513d601f19601f8201168201806040525081019061024d9190610eea565b61026a57604051631403112d60e21b815260040160405180910390fd5b5050505050505050505050565b6000805461028490610f0c565b80601f01602080910402602001604051908101604052809291908181526020018280546102b090610f0c565b80156102fd5780601f106102d2576101008083540402835291602001916102fd565b820191906000526020600020905b8154815290600101906020018083116102e057829003601f168201915b505050505081565b60008282604051610317929190610e52565b604051908190038120635f6970c360e01b825291506001600160a01b037f00000000000000000000000000000000000000000000000000000000000000001690635f6970c390610375908b908b908b908b908b908990600401610f46565b6020604051808303816000875af1158015610394573d6000803e3d6000fd5b505050506040513d601f19601f820116820180604052508101906103b89190610eea565b6103d557604051631403112d60e21b815260040160405180910390fd5b6103e3878787878787610665565b5050505050505050565b60006103f8336106af565b838360405160200161040c93929190610f87565b60405160208183030381529060405290506000610428826108fa565b90507f00000000000000000000000000000000000000000000000000000000000000006001600160a01b0316630c93e3bb34308b8b8b8b88336040518963ffffffff1660e01b81526004016104839796959493929190610fb7565b6000604051808303818588803b15801561049c57600080fd5b505af11580156104b0573d6000803e3d6000fd5b5050604051631c92115f60e01b81526001600160a01b037f0000000000000000000000000000000000000000000000000000000000000000169350631c92115f925061050991508b908b908b908b908890600401611019565b600060405180830381600087803b15801561052357600080fd5b505af1158015610537573d6000803e3d6000fd5b505050505050505050505050565b60018054819061055490610f0c565b80601f016020809104026020016040519081016040528092919081815260200182805461058090610f0c565b80156105cd5780601f106105a2576101008083540402835291602001916105cd565b820191906000526020600020905b8154815290600101906020018083116105b057829003601f168201915b5050505050908060010180546105e290610f0c565b80601f016020809104026020016040519081016040528092919081815260200182805461060e90610f0c565b801561065b5780601f106106305761010080835404028352916020019161065b565b820191906000526020600020905b81548152906001019060200180831161063e57829003601f168201915b5050505050905082565b60008061067483850185611103565b6040805180820190915282815260208101829052919350915060018061069a85826111b6565b506020820151600182019061026a90826111b6565b604051606082811b6bffffffffffffffffffffffff191660208301529060009060340160408051601f198184030181528282528051838301909252601083526f181899199a1a9b1b9c1cb0b131b232b360811b6020840152805190935090919060009061071d90600261128c565b6107289060026112a9565b67ffffffffffffffff81111561074057610740611060565b6040519080825280601f01601f19166020018201604052801561076a576020820181803683370190505b509050600360fc1b81600081518110610785576107856112bc565b60200101906001600160f81b031916908160001a905350600f60fb1b816001815181106107b4576107b46112bc565b60200101906001600160f81b031916908160001a90535060005b838110156108f0578260048683815181106107eb576107eb6112bc565b016020015182516001600160f81b031990911690911c60f81c908110610813576108136112bc565b01602001516001600160f81b0319168261082e83600261128c565b6108399060026112a9565b81518110610849576108496112bc565b60200101906001600160f81b031916908160001a90535082858281518110610873576108736112bc565b602091010151815160f89190911c600f16908110610893576108936112bc565b01602001516001600160f81b031916826108ae83600261128c565b6108b99060036112a9565b815181106108c9576108c96112bc565b60200101906001600160f81b031916908160001a9053506108e9816112d2565b90506107ce565b5095945050505050565b6060600080610908306106af565b8460405160200161091b939291906112eb565b60408051808303601f19018152600380845260808401909252925060009190816020015b606081526020019060019003908161093f5790505090506040518060400160405280600c81526020016b39b7bab931b2afb1b430b4b760a11b8152508160008151811061098e5761098e6112bc565b60200260200101819052506040518060400160405280600e81526020016d736f757263655f6164647265737360901b815250816001815181106109d3576109d36112bc565b6020026020010181905250604051806040016040528060078152602001661c185e5b1bd85960ca1b81525081600281518110610a1157610a116112bc565b602090810291909101015260408051600380825260808201909252600091816020015b6060815260200190600190039081610a3457905050905060405180604001604052806006815260200165737472696e6760d01b81525081600081518110610a7d57610a7d6112bc565b602002602001018190525060405180604001604052806006815260200165737472696e6760d01b81525081600181518110610aba57610aba6112bc565b602002602001018190525060405180604001604052806005815260200164627974657360d81b81525081600281518110610af657610af66112bc565b60200260200101819052506060828285604051602001610b18939291906113ea565b60408051601f19818403018152908290529150610b3f90600160e01b90839060200161144d565b604051602081830303815290604052945050505050919050565b60008083601f840112610b6b57600080fd5b50813567ffffffffffffffff811115610b8357600080fd5b602083019150836020828501011115610b9b57600080fd5b9250929050565b60008060008060008060008060008060c08b8d031215610bc157600080fd5b8a35995060208b013567ffffffffffffffff80821115610be057600080fd5b610bec8e838f01610b59565b909b50995060408d0135915080821115610c0557600080fd5b610c118e838f01610b59565b909950975060608d0135915080821115610c2a57600080fd5b610c368e838f01610b59565b909750955060808d0135915080821115610c4f57600080fd5b50610c5c8d828e01610b59565b9150809450508092505060a08b013590509295989b9194979a5092959850565b60005b83811015610c97578181015183820152602001610c7f565b50506000910152565b60008151808452610cb8816020860160208601610c7c565b601f01601f19169290920160200192915050565b602081526000610cdf6020830184610ca0565b9392505050565b60008060008060008060006080888a031215610d0157600080fd5b87359650602088013567ffffffffffffffff80821115610d2057600080fd5b610d2c8b838c01610b59565b909850965060408a0135915080821115610d4557600080fd5b610d518b838c01610b59565b909650945060608a0135915080821115610d6a57600080fd5b50610d778a828b01610b59565b989b979a50959850939692959293505050565b60008060008060008060608789031215610da357600080fd5b863567ffffffffffffffff80821115610dbb57600080fd5b610dc78a838b01610b59565b90985096506020890135915080821115610de057600080fd5b610dec8a838b01610b59565b90965094506040890135915080821115610e0557600080fd5b50610e1289828a01610b59565b979a9699509497509295939492505050565b604081526000610e376040830185610ca0565b8281036020840152610e498185610ca0565b95945050505050565b8183823760009101908152919050565b81835281816020850137506000828201602090810191909152601f909101601f19169091010190565b89815260c060208201526000610ea560c083018a8c610e62565b8281036040840152610eb881898b610e62565b90508660608401528281036080840152610ed3818688610e62565b9150508260a08301529a9950505050505050505050565b600060208284031215610efc57600080fd5b81518015158114610cdf57600080fd5b600181811c90821680610f2057607f821691505b602082108103610f4057634e487b7160e01b600052602260045260246000fd5b50919050565b868152608060208201526000610f60608083018789610e62565b8281036040840152610f73818688610e62565b915050826060830152979650505050505050565b604081526000610f9a6040830186610ca0565b8281036020840152610fad818587610e62565b9695505050505050565b600060018060a01b03808a16835260a06020840152610fda60a08401898b610e62565b8381036040850152610fed81888a610e62565b905083810360608501526110018187610ca0565b92505080841660808401525098975050505050505050565b60608152600061102d606083018789610e62565b8281036020840152611040818688610e62565b905082810360408401526110548185610ca0565b98975050505050505050565b634e487b7160e01b600052604160045260246000fd5b600082601f83011261108757600080fd5b813567ffffffffffffffff808211156110a2576110a2611060565b604051601f8301601f19908116603f011681019082821181831017156110ca576110ca611060565b816040528381528660208588010111156110e357600080fd5b836020870160208301376000602085830101528094505050505092915050565b6000806040838503121561111657600080fd5b823567ffffffffffffffff8082111561112e57600080fd5b61113a86838701611076565b9350602085013591508082111561115057600080fd5b5061115d85828601611076565b9150509250929050565b601f8211156111b157600081815260208120601f850160051c8101602086101561118e5750805b601f850160051c820191505b818110156111ad5782815560010161119a565b5050505b505050565b815167ffffffffffffffff8111156111d0576111d0611060565b6111e4816111de8454610f0c565b84611167565b602080601f83116001811461121957600084156112015750858301515b600019600386901b1c1916600185901b1785556111ad565b600085815260208120601f198616915b8281101561124857888601518255948401946001909101908401611229565b50858210156112665787850151600019600388901b60f8161c191681555b5050505050600190811b01905550565b634e487b7160e01b600052601160045260246000fd5b80820281158282048414176112a3576112a3611276565b92915050565b808201808211156112a3576112a3611276565b634e487b7160e01b600052603260045260246000fd5b6000600182016112e4576112e4611276565b5060010190565b6060815260008085546112fd81610f0c565b806060860152608060018084166000811461131f57600181146113395761136a565b60ff1985168884015283151560051b88018301955061136a565b8a60005260208060002060005b868110156113615781548b8201870152908401908201611346565b8a018501975050505b505050505082810360208401526113818186610ca0565b90508281036040840152610fad8185610ca0565b600081518084526020808501808196508360051b8101915082860160005b858110156113dd5782840389526113cb848351610ca0565b988501989350908401906001016113b3565b5091979650505050505050565b608081526013608082015272726563656976655f6d6573736167655f65766d60681b60a082015260c06020820152600061142760c0830186611395565b82810360408401526114398186611395565b90508281036060840152610fad8185610ca0565b6001600160e01b0319831681528151600090611470816004850160208701610c7c565b91909101600401939250505056fea2646970667358221220143f07fe060a7bbb7a0583d3a5d673335d294c61b703f2308690d93029888a1964736f6c63430008110033",
  "linkReferences": {},
  "deployedLinkReferences": {}
}