{
  "_format": "hh-sol-artifact-1",
  "contractName": "PolygonToSecret",
  "sourceName": "contracts/PolygonToSecret.sol",
  "abi": [
    {
      "inputs": [
        {
          "internalType": "address",
          "name": "_gateway",
          "type": "address"
        },
        {
          "internalType": "address",
          "name": "_gasReceiver",
          "type": "address"
        }
      ],
      "stateMutability": "nonpayable",
      "type": "constructor"
    },
    {
      "inputs": [],
      "name": "InvalidAddress",
      "type": "error"
    },
    {
      "inputs": [],
      "name": "NotApprovedByGateway",
      "type": "error"
    },
    {
      "anonymous": false,
      "inputs": [
        {
          "indexed": false,
          "internalType": "string",
          "name": "_from",
          "type": "string"
        },
        {
          "indexed": false,
          "internalType": "string",
          "name": "_message",
          "type": "string"
        }
      ],
      "name": "Executed",
      "type": "event"
    },
    {
      "inputs": [],
      "name": "chainName",
      "outputs": [
        {
          "internalType": "string",
          "name": "",
          "type": "string"
        }
      ],
      "stateMutability": "view",
      "type": "function"
    },
    {
      "inputs": [
        {
          "internalType": "bytes32",
          "name": "commandId",
          "type": "bytes32"
        },
        {
          "internalType": "string",
          "name": "sourceChain",
          "type": "string"
        },
        {
          "internalType": "string",
          "name": "sourceAddress",
          "type": "string"
        },
        {
          "internalType": "bytes",
          "name": "payload",
          "type": "bytes"
        }
      ],
      "name": "execute",
      "outputs": [],
      "stateMutability": "nonpayable",
      "type": "function"
    },
    {
      "inputs": [
        {
          "internalType": "bytes32",
          "name": "commandId",
          "type": "bytes32"
        },
        {
          "internalType": "string",
          "name": "sourceChain",
          "type": "string"
        },
        {
          "internalType": "string",
          "name": "sourceAddress",
          "type": "string"
        },
        {
          "internalType": "bytes",
          "name": "payload",
          "type": "bytes"
        },
        {
          "internalType": "string",
          "name": "tokenSymbol",
          "type": "string"
        },
        {
          "internalType": "uint256",
          "name": "amount",
          "type": "uint256"
        }
      ],
      "name": "executeWithToken",
      "outputs": [],
      "stateMutability": "nonpayable",
      "type": "function"
    },
    {
      "inputs": [],
      "name": "gasService",
      "outputs": [
        {
          "internalType": "contract IAxelarGasService",
          "name": "",
          "type": "address"
        }
      ],
      "stateMutability": "view",
      "type": "function"
    },
    {
      "inputs": [],
      "name": "gateway",
      "outputs": [
        {
          "internalType": "contract IAxelarGateway",
          "name": "",
          "type": "address"
        }
      ],
      "stateMutability": "view",
      "type": "function"
    },
    {
      "inputs": [],
      "name": "message",
      "outputs": [
        {
          "internalType": "string",
          "name": "",
          "type": "string"
        }
      ],
      "stateMutability": "view",
      "type": "function"
    },
    {
      "inputs": [
        {
          "internalType": "string",
          "name": "destinationChain",
          "type": "string"
        },
        {
          "internalType": "string",
          "name": "destinationAddress",
          "type": "string"
        },
        {
          "internalType": "string",
          "name": "_message",
          "type": "string"
        }
      ],
      "name": "send",
      "outputs": [],
      "stateMutability": "payable",
      "type": "function"
    },
    {
      "inputs": [],
      "name": "sourceAddress",
      "outputs": [
        {
          "internalType": "string",
          "name": "",
          "type": "string"
        }
      ],
      "stateMutability": "view",
      "type": "function"
    },
    {
      "inputs": [],
      "name": "sourceChain",
      "outputs": [
        {
          "internalType": "string",
          "name": "",
          "type": "string"
        }
      ],
      "stateMutability": "view",
      "type": "function"
    }
  ],
  "bytecode": "0x60c060405234801561001057600080fd5b50604051620015eb380380620015eb8339810160408190526100319161008d565b816001600160a01b0381166100595760405163e6c4247b60e01b815260040160405180910390fd5b6001600160a01b039081166080521660a052506100c0565b80516001600160a01b038116811461008857600080fd5b919050565b600080604083850312156100a057600080fd5b6100a983610071565b91506100b760208401610071565b90509250929050565b60805160a0516114ea620001016000396000818161017a01526104b5015260008181609d015281816101f701528181610375015261055201526114ea6000f3fe6080604052600436106100865760003560e01c8063491606581161005957806349160658146101355780635615264d146101555780636a22d8cc14610168578063b0fa84441461019c578063e21f37ce146101b157600080fd5b8063116191b61461008b5780631a98b2e0146100dc5780631c6ffa46146100fe5780631c93b03a14610120575b600080fd5b34801561009757600080fd5b506100bf7f000000000000000000000000000000000000000000000000000000000000000081565b6040516001600160a01b0390911681526020015b60405180910390f35b3480156100e857600080fd5b506100fc6100f7366004610b55565b6101c6565b005b34801561010a57600080fd5b506101136102a9565b6040516100d39190610c7f565b34801561012c57600080fd5b50610113610337565b34801561014157600080fd5b506100fc610150366004610c99565b610344565b6100fc610163366004610d3d565b61042c565b34801561017457600080fd5b506100bf7f000000000000000000000000000000000000000000000000000000000000000081565b3480156101a857600080fd5b506101136105ce565b3480156101bd57600080fd5b506101136105db565b600085856040516101d8929190610dd7565b604051908190038120631876eed960e01b825291506001600160a01b037f00000000000000000000000000000000000000000000000000000000000000001690631876eed99061023c908e908e908e908e908e9089908d908d908d90600401610e10565b6020604051808303816000875af115801561025b573d6000803e3d6000fd5b505050506040513d601f19601f8201168201806040525081019061027f9190610e6f565b61029c57604051631403112d60e21b815260040160405180910390fd5b5050505050505050505050565b600180546102b690610e91565b80601f01602080910402602001604051908101604052809291908181526020018280546102e290610e91565b801561032f5780601f106103045761010080835404028352916020019161032f565b820191906000526020600020905b81548152906001019060200180831161031257829003601f168201915b505050505081565b600380546102b690610e91565b60008282604051610356929190610dd7565b604051908190038120635f6970c360e01b825291506001600160a01b037f00000000000000000000000000000000000000000000000000000000000000001690635f6970c3906103b4908b908b908b908b908b908990600401610ecb565b6020604051808303816000875af11580156103d3573d6000803e3d6000fd5b505050506040513d601f19601f820116820180604052508101906103f79190610e6f565b61041457604051631403112d60e21b815260040160405180910390fd5b6104228787878787876105e8565b5050505050505050565b600034116104805760405162461bcd60e51b815260206004820152601760248201527f476173207061796d656e74206973207265717569726564000000000000000000604482015260640160405180910390fd5b60008282604051602001610495929190610f0c565b604051602081830303815290604052905060006104b182610661565b90507f00000000000000000000000000000000000000000000000000000000000000006001600160a01b0316630c93e3bb34308b8b8b8b88336040518963ffffffff1660e01b815260040161050c9796959493929190610f28565b6000604051808303818588803b15801561052557600080fd5b505af1158015610539573d6000803e3d6000fd5b5050604051631c92115f60e01b81526001600160a01b037f0000000000000000000000000000000000000000000000000000000000000000169350631c92115f925061059291508b908b908b908b908890600401610f8a565b600060405180830381600087803b1580156105ac57600080fd5b505af11580156105c0573d6000803e3d6000fd5b505050505050505050505050565b600280546102b690610e91565b600080546102b690610e91565b6105f481830183610fe7565b60009061060190826110e7565b50600161060f8688836111a7565b50600261061d8486836111a7565b507f0d97a9033491f569feb4c72abf12722b227eec24ee13547bec3654f8663ff711600260006040516106519291906112e5565b60405180910390a1505050505050565b606060006003610670306108c1565b8460405160200161068393929190611313565b60408051808303601f19018152600380845260808401909252925060009190816020015b60608152602001906001900390816106a75790505090506040518060400160405280600c81526020016b39b7bab931b2afb1b430b4b760a11b815250816000815181106106f6576106f6611356565b60200260200101819052506040518060400160405280600e81526020016d736f757263655f6164647265737360901b8152508160018151811061073b5761073b611356565b6020026020010181905250604051806040016040528060078152602001661c185e5b1bd85960ca1b8152508160028151811061077957610779611356565b602090810291909101015260408051600380825260808201909252600091816020015b606081526020019060019003908161079c57905050905060405180604001604052806006815260200165737472696e6760d01b815250816000815181106107e5576107e5611356565b602002602001018190525060405180604001604052806006815260200165737472696e6760d01b8152508160018151811061082257610822611356565b602002602001018190525060405180604001604052806005815260200164627974657360d81b8152508160028151811061085e5761085e611356565b60200260200101819052506060828285604051602001610880939291906113c1565b60408051601f198184030181529082905291506108a790600160e01b908390602001611424565b604051602081830303815290604052945050505050919050565b604051606082811b6bffffffffffffffffffffffff191660208301529060009060340160408051601f198184030181528282528051838301909252601083526f181899199a1a9b1b9c1cb0b131b232b360811b6020840152805190935090919060009061092f90600261146b565b61093a906002611488565b67ffffffffffffffff81111561095257610952610fd1565b6040519080825280601f01601f19166020018201604052801561097c576020820181803683370190505b509050600360fc1b8160008151811061099757610997611356565b60200101906001600160f81b031916908160001a905350600f60fb1b816001815181106109c6576109c6611356565b60200101906001600160f81b031916908160001a90535060005b83811015610b02578260048683815181106109fd576109fd611356565b016020015182516001600160f81b031990911690911c60f81c908110610a2557610a25611356565b01602001516001600160f81b03191682610a4083600261146b565b610a4b906002611488565b81518110610a5b57610a5b611356565b60200101906001600160f81b031916908160001a90535082858281518110610a8557610a85611356565b602091010151815160f89190911c600f16908110610aa557610aa5611356565b01602001516001600160f81b03191682610ac083600261146b565b610acb906003611488565b81518110610adb57610adb611356565b60200101906001600160f81b031916908160001a905350610afb8161149b565b90506109e0565b5095945050505050565b60008083601f840112610b1e57600080fd5b50813567ffffffffffffffff811115610b3657600080fd5b602083019150836020828501011115610b4e57600080fd5b9250929050565b60008060008060008060008060008060c08b8d031215610b7457600080fd5b8a35995060208b013567ffffffffffffffff80821115610b9357600080fd5b610b9f8e838f01610b0c565b909b50995060408d0135915080821115610bb857600080fd5b610bc48e838f01610b0c565b909950975060608d0135915080821115610bdd57600080fd5b610be98e838f01610b0c565b909750955060808d0135915080821115610c0257600080fd5b50610c0f8d828e01610b0c565b9150809450508092505060a08b013590509295989b9194979a5092959850565b60005b83811015610c4a578181015183820152602001610c32565b50506000910152565b60008151808452610c6b816020860160208601610c2f565b601f01601f19169290920160200192915050565b602081526000610c926020830184610c53565b9392505050565b60008060008060008060006080888a031215610cb457600080fd5b87359650602088013567ffffffffffffffff80821115610cd357600080fd5b610cdf8b838c01610b0c565b909850965060408a0135915080821115610cf857600080fd5b610d048b838c01610b0c565b909650945060608a0135915080821115610d1d57600080fd5b50610d2a8a828b01610b0c565b989b979a50959850939692959293505050565b60008060008060008060608789031215610d5657600080fd5b863567ffffffffffffffff80821115610d6e57600080fd5b610d7a8a838b01610b0c565b90985096506020890135915080821115610d9357600080fd5b610d9f8a838b01610b0c565b90965094506040890135915080821115610db857600080fd5b50610dc589828a01610b0c565b979a9699509497509295939492505050565b8183823760009101908152919050565b81835281816020850137506000828201602090810191909152601f909101601f19169091010190565b89815260c060208201526000610e2a60c083018a8c610de7565b8281036040840152610e3d81898b610de7565b90508660608401528281036080840152610e58818688610de7565b9150508260a08301529a9950505050505050505050565b600060208284031215610e8157600080fd5b81518015158114610c9257600080fd5b600181811c90821680610ea557607f821691505b602082108103610ec557634e487b7160e01b600052602260045260246000fd5b50919050565b868152608060208201526000610ee5608083018789610de7565b8281036040840152610ef8818688610de7565b915050826060830152979650505050505050565b602081526000610f20602083018486610de7565b949350505050565b600060018060a01b03808a16835260a06020840152610f4b60a08401898b610de7565b8381036040850152610f5e81888a610de7565b90508381036060850152610f728187610c53565b92505080841660808401525098975050505050505050565b606081526000610f9e606083018789610de7565b8281036020840152610fb1818688610de7565b90508281036040840152610fc58185610c53565b98975050505050505050565b634e487b7160e01b600052604160045260246000fd5b600060208284031215610ff957600080fd5b813567ffffffffffffffff8082111561101157600080fd5b818401915084601f83011261102557600080fd5b81358181111561103757611037610fd1565b604051601f8201601f19908116603f0116810190838211818310171561105f5761105f610fd1565b8160405282815287602084870101111561107857600080fd5b826020860160208301376000928101602001929092525095945050505050565b601f8211156110e257600081815260208120601f850160051c810160208610156110bf5750805b601f850160051c820191505b818110156110de578281556001016110cb565b5050505b505050565b815167ffffffffffffffff81111561110157611101610fd1565b6111158161110f8454610e91565b84611098565b602080601f83116001811461114a57600084156111325750858301515b600019600386901b1c1916600185901b1785556110de565b600085815260208120601f198616915b828110156111795788860151825594840194600190910190840161115a565b50858210156111975787850151600019600388901b60f8161c191681555b5050505050600190811b01905550565b67ffffffffffffffff8311156111bf576111bf610fd1565b6111d3836111cd8354610e91565b83611098565b6000601f84116001811461120757600085156111ef5750838201355b600019600387901b1c1916600186901b178355611261565b600083815260209020601f19861690835b828110156112385786850135825560209485019460019092019101611218565b50868210156112555760001960f88860031b161c19848701351681555b505060018560011b0183555b5050505050565b6000815461127581610e91565b80855260206001838116801561129257600181146112ac576112da565b60ff1985168884015283151560051b8801830195506112da565b866000528260002060005b858110156112d25781548a82018601529083019084016112b7565b890184019650505b505050505092915050565b6040815260006112f86040830185611268565b828103602084015261130a8185611268565b95945050505050565b6060815260006113266060830186611268565b82810360208401526113388186610c53565b9050828103604084015261134c8185610c53565b9695505050505050565b634e487b7160e01b600052603260045260246000fd5b600081518084526020808501808196508360051b8101915082860160005b858110156113b45782840389526113a2848351610c53565b9885019893509084019060010161138a565b5091979650505050505050565b608081526013608082015272726563656976655f6d6573736167655f65766d60681b60a082015260c0602082015260006113fe60c083018661136c565b8281036040840152611410818661136c565b9050828103606084015261134c8185610c53565b6001600160e01b0319831681528151600090611447816004850160208701610c2f565b919091016004019392505050565b634e487b7160e01b600052601160045260246000fd5b808202811582820484141761148257611482611455565b92915050565b8082018082111561148257611482611455565b6000600182016114ad576114ad611455565b506001019056fea264697066735822122019ff8e153e05a39bd056405ba697da64ca872c3d487151351bf04c66b84fa1b864736f6c63430008110033",
  "linkReferences": {},
  "deployedLinkReferences": {}
}